:100555001510A810A605151015101510A810A6033E
:0A05650008A60208A60115101510E3
:10056F00A810E4F6A810E6C39408503408E4F6A8DF
:10057F001008E6C394805023E5102405F8E6FFA881
:10058F001008088603080806E6188602700106148C
:10059F00F9EF1205FCA810080680D4A8100680C435
:0705AF00E5102406F51022FF
:1004C4001510A810A605151015101510A810A603D0
:0804D40008A60208A60115109C
:1004DC00E5102405F9E7FE09E77803CEA2E713CE71
:1004EC0013D8F8FFC374079FA810F6A810E6D3948E
:1004FC00004010080808748026F618E436F6A81098
:10050C001680E8A81008860308E6FA08E6F9E51054
:10051C002404F8E629F9E43AFAC003C002C0011237
:10052C0005B6FFE5102405F909E75407FE7480A809
:10053C0006088002C313D8FC4FD001D002D003129E
:02054C0005FCAC
:07054E00E5102407F510225F
:10040100FF12077B15101510A810760008A607E546
:10041100102406F8E614FF1207E0AD07E5102403E7
:09042100F8860308E6FA08E6F982
:10042A001510A810A605151015101510A810A6036A
:08043A0008A60208A601151036
:10044200E5102405F9E7FE09E77803CEA2E713CE0B
:1004520013D8F8FFC374079FA810F6A810E6D39428
:10046200004010080808748026F618E436F6A81032
:100472001680E8A81008860308E6FA08E6F9E510EF
:100482002404F8E6F5827583001205CFFD7C00E5B1
:10049200102405F909E75407FF74807E00A80708B5
:1004A2008006CEA2E713CE13D8F8FFEE5CFEEF5D16
:0704B2004E6003D38001C37B
:0B04B900C0D0E5102407F510D0D022C1
:1007E000EFD3948040037F7F22BF80037F002222CB
:09077200E5102405F909E714FF64
:10077B00EFD3944040037F3F22BF40037F002222F0
:100003001510A810A605151015101510A810A60395
:0800130008A60208A601151061
:10001B00A810E4F6E5102404F8E6601A647F601675
:10002B00E5102405F8E6FE08E6FF4E6009EF643F95
:10003B004E600302012FE5102405F909E7141204A1
:10004B00015003A81006E5102405F8E6FE08E6FFAC
:10005B0015101510A810A60612040D5003A81006B3
:10006B00E5102405F909E7041204015003A8100652
:10007B0012077215101510A810760008A607E510C8
:10008B002406F8E6FD12041D5003A81006E5102403
:10009B0005F909E704FF12077B15101510A8107658
:1000AB000008A607E5102406F8E6FD12041D500310
:1000BB00A8100612077215101510A810760008A6C6
:1000CB0007E5102406F8E6041204175003A81006DF
:1000DB00E5102405F8E6FE08E6FF15101510A8102C
:1000EB00A60608A607E5102406F8E6041204175026
:1000FB0003A81006E5102405F909E704FF12077B96
:10010B0015101510A810760008A607E5102406F8A0
:10011B00E6041204175003A81006A810080808E6F6
:10012B00FF020268E5102405F808E624FFFF18E635
:10013B0034FF15101510A810F608A607E5102406B5
:10014B00F8E614FD12041D5003A81006E510240553
:10015B00F8E6FE08E6FF15101510A810A60608A66F
:10016B0007E5102406F8E614FD12041D5003A81031
:10017B0006E5102405F808E62401FF18E4361510EF
:10018B001510A810F608A607E5102406F8E614FDCE
:10019B0012041D5003A81006E5102405F808E624E8
:1001AB00FFFF18E634FF15101510A810F608A60768
:1001BB00E5102406F8E6FD12041D5003A81006E511
:1001CB00102405F808E62401FF18E4361510151065
:1001DB00A810F608A607E5102406F8E6FD12041D84
:1001EB005003A81006E5102405F808E624FFFF18B5
:1001FB00E634FF15101510A810F608A607E5102415
:10020B0006F8E604FD12041D5003A81006E51024A1
:10021B0005F8E6FE08E6FF15101510A810A606084F
:10022B00A607E5102406F8E604FD12041D5003A8EA
:10023B001006E5102405F808E62401FF18E436152E
:10024B00101510A810F608A607E5102406F8E6040A
:0D025B00FD12041D5003A81006A810E6FFB8
:07026800E5102407F5102248
:10033B00151015101510A810A60308A60208A60183
:04034B001510151064
:10034F007D00E5102405F8860308E6FA08E6F912A1
:10035F000555A810E4F6A810E6C3948040030203E5
:10036F00FA08E4F6A81008E6FFC39440507715107A
:10037F001510A810760008A607A8100808E6FDE5D6
:10038F00102404F8860308E6FA08E6F9120003EFD2
:10039F0024FD6024047047A81008E6FF15101510FF
:1003AF00A810760008A607A8100808E6FDE5102497
:1003BF000412042150288000A81008E6FF1510151C
:1003CF0010A810760008A607A8100808E6FDE5108B
:1003DF002407F8860308E6FA08E6F91204C4A81001
:0B03EF000806020373A8100602036555
:0703FA00E5102408F51022B4
:10060E001207CE12026FE4FF12078BE4FF12070EE1
:10061E00151015101510A810760108760008760032
:10062E007B017A04790012033B7B017A0079001278
:10063E000664151015101510A8107601087604081A
:10064E0076007B017A00790012033B7B017A0479F4
:06065E000012066480BAE0
:10075800EF4E60157D087C07ED1DAA0470011C4A48
:0907680070F6EF1F70EA1E80E735
:010771002265
:0506DF0024B0FFE4FD62
:1006E4008F0D8D0E1208427F7812080E12084BE50A
:1006F4000E60047F408002E4FF12080E12084BAF24
:0A0704000D12080E12084B020854F3
:10078B008F08E5087006FD7FA61206E4E508B401A4
:09079B0007E4FD7FA71206E42229
:10070E008F08E508700DFD7FC81206E4E4FD7FA199
:10071E001206E4E508B4010EE4FD7FC01206E4E41F
:07072E00FD7FA01206E4228A
:100735008F0F050F050FED1206DFE50F54F0C454BA
:100745000F4410FFE4FD1206E4E50F540FFFE4FD2E
:030755000206E4B5
:1007A400E4FD7F8D1206E4E4FD7F141206E4E4FD0B
:0507B4007FAF0206E426
:1007B900E4FD7F8D1206E4E4FD7F101206E4E4FDFA
:0507C9007FAE0206E412
:1006AC00E4F508E5081206DFE4FD7F021206E4E437
:1006BC00FD7F101206E4E4F5097D01E4FF1206E467
:1006CC000509E509C3948040F00508E508C39408C2
:0206DC0040D10B
:0106DE0022F9
:060664008B088A09890AD7
:10066A00E4F50BE50B1206DFE4FDFF1206E4E4FDF8
:10067A007F101206E4E4F50CAB08050AE50AAA099C
:10068A007002050914F91205B6FF7D011206E40588
:10069A000CE50CC3948040E0050BE50BC3940840BD
:0106AA00C28D
:0106AB00222C
:10026F007FC87E00120758E4FD7FAE1206E4E4FD5E
:10027F00FF1206E4E4FD7F101206E4E4FD7F401256
:10028F0006E4E4FD7F811206E4E4FD7FCF1206E46D
:10029F00E4FD7FA11206E4E4FD7FC81206E4E4FD4D
:1002AF007FA61206E4E4FD7FA81206E4E4FD7F3F7B
:1002BF001206E4E4FD7FD31206E4E4FDFF1206E428
:1002CF00E4FD7FD51206E4E4FD7F801206E4E4FD31
:1002DF007FD91206E4E4FD7FF11206E4E4FD7FDA34
:1002EF001206E4E4FD7F121206E4E4FD7FDB120642
:1002FF00E4E4FD7F401206E4E4FD7F201206E4E40F
:10030F00FD7F021206E4E4FD7F8D1206E4E4FD7F1B
:10031F00141206E4E4FD7FA41206E4E4FD7FA612A6
:0C032F0006E41206ACE4FD7FAF0206E419
:0C082A0090FE82E030E6F9E054BFF022BE
:0908420090FE817401F002082A05
:0E080E0090FE86EFF090FE817402F002082A40
:09084B0090FE817403F002082AFA
:0F07F00090FE817404F012082A90FE87E0FF2229
:0E081C0090FE82E4F090FE817405F002082A3E
:0F07FF0090FE827401F090FE817405F002082ACA
:0908540090FE817406F002082AEE
:1007CE0075BA8090FE8074E0F074C2F090FE82E400
:0207DE00F02207
:03000000020836BD
:0C083600787FE4F6D8FD75811002060EF4
:1005B600BB010689828A83E0225002E722BBFE0243
:0905C600E32289828A83E4932276
:1005CF00BB010CE58229F582E5833AF583E02250E1
:1005DF0006E92582F8E622BBFE06E92582F8E2222B
:0D05EF00E58229F582E5833AF583E4932245
:1005FC00BB010689828A83F0225002F722BBFE01DE
:02060C00F322D7
:00000001FF
